{
  "_format": "hh-sol-artifact-1",
  "contractName": "MyNFT",
  "sourceName": "contracts/MyNFT.sol",
  "abi": [
    {
      "inputs": [],
      "stateMutability": "nonpayable",
      "type": "constructor"
    },
    {
      "inputs": [
        {
          "internalType": "address",
          "name": "sender",
          "type": "address"
        },
        {
          "internalType": "uint256",
          "name": "tokenId",
          "type": "uint256"
        },
        {
          "internalType": "address",
          "name": "owner",
          "type": "address"
        }
      ],
      "name": "ERC721IncorrectOwner",
      "type": "error"
    },
    {
      "inputs": [
        {
          "internalType": "address",
          "name": "operator",
          "type": "address"
        },
        {
          "internalType": "uint256",
          "name": "tokenId",
          "type": "uint256"
        }
      ],
      "name": "ERC721InsufficientApproval",
      "type": "error"
    },
    {
      "inputs": [
        {
          "internalType": "address",
          "name": "approver",
          "type": "address"
        }
      ],
      "name": "ERC721InvalidApprover",
      "type": "error"
    },
    {
      "inputs": [
        {
          "internalType": "address",
          "name": "operator",
          "type": "address"
        }
      ],
      "name": "ERC721InvalidOperator",
      "type": "error"
    },
    {
      "inputs": [
        {
          "internalType": "address",
          "name": "owner",
          "type": "address"
        }
      ],
      "name": "ERC721InvalidOwner",
      "type": "error"
    },
    {
      "inputs": [
        {
          "internalType": "address",
          "name": "receiver",
          "type": "address"
        }
      ],
      "name": "ERC721InvalidReceiver",
      "type": "error"
    },
    {
      "inputs": [
        {
          "internalType": "address",
          "name": "sender",
          "type": "address"
        }
      ],
      "name": "ERC721InvalidSender",
      "type": "error"
    },
    {
      "inputs": [
        {
          "internalType": "uint256",
          "name": "tokenId",
          "type": "uint256"
        }
      ],
      "name": "ERC721NonexistentToken",
      "type": "error"
    },
    {
      "anonymous": false,
      "inputs": [
        {
          "indexed": true,
          "internalType": "address",
          "name": "owner",
          "type": "address"
        },
        {
          "indexed": true,
          "internalType": "address",
          "name": "approved",
          "type": "address"
        },
        {
          "indexed": true,
          "internalType": "uint256",
          "name": "tokenId",
          "type": "uint256"
        }
      ],
      "name": "Approval",
      "type": "event"
    },
    {
      "anonymous": false,
      "inputs": [
        {
          "indexed": true,
          "internalType": "address",
          "name": "owner",
          "type": "address"
        },
        {
          "indexed": true,
          "internalType": "address",
          "name": "operator",
          "type": "address"
        },
        {
          "indexed": false,
          "internalType": "bool",
          "name": "approved",
          "type": "bool"
        }
      ],
      "name": "ApprovalForAll",
      "type": "event"
    },
    {
      "anonymous": false,
      "inputs": [
        {
          "indexed": true,
          "internalType": "address",
          "name": "from",
          "type": "address"
        },
        {
          "indexed": true,
          "internalType": "address",
          "name": "to",
          "type": "address"
        },
        {
          "indexed": true,
          "internalType": "uint256",
          "name": "tokenId",
          "type": "uint256"
        }
      ],
      "name": "Transfer",
      "type": "event"
    },
    {
      "inputs": [
        {
          "internalType": "address",
          "name": "to",
          "type": "address"
        },
        {
          "internalType": "uint256",
          "name": "tokenId",
          "type": "uint256"
        }
      ],
      "name": "approve",
      "outputs": [],
      "stateMutability": "nonpayable",
      "type": "function"
    },
    {
      "inputs": [
        {
          "internalType": "address",
          "name": "owner",
          "type": "address"
        }
      ],
      "name": "balanceOf",
      "outputs": [
        {
          "internalType": "uint256",
          "name": "",
          "type": "uint256"
        }
      ],
      "stateMutability": "view",
      "type": "function"
    },
    {
      "inputs": [
        {
          "internalType": "uint256",
          "name": "tokenId",
          "type": "uint256"
        }
      ],
      "name": "getApproved",
      "outputs": [
        {
          "internalType": "address",
          "name": "",
          "type": "address"
        }
      ],
      "stateMutability": "view",
      "type": "function"
    },
    {
      "inputs": [
        {
          "internalType": "address",
          "name": "owner",
          "type": "address"
        },
        {
          "internalType": "address",
          "name": "operator",
          "type": "address"
        }
      ],
      "name": "isApprovedForAll",
      "outputs": [
        {
          "internalType": "bool",
          "name": "",
          "type": "bool"
        }
      ],
      "stateMutability": "view",
      "type": "function"
    },
    {
      "inputs": [
        {
          "internalType": "address",
          "name": "to",
          "type": "address"
        },
        {
          "internalType": "string",
          "name": "_tokenURI",
          "type": "string"
        }
      ],
      "name": "mint",
      "outputs": [
        {
          "internalType": "uint256",
          "name": "",
          "type": "uint256"
        }
      ],
      "stateMutability": "nonpayable",
      "type": "function"
    },
    {
      "inputs": [],
      "name": "name",
      "outputs": [
        {
          "internalType": "string",
          "name": "",
          "type": "string"
        }
      ],
      "stateMutability": "view",
      "type": "function"
    },
    {
      "inputs": [
        {
          "internalType": "uint256",
          "name": "tokenId",
          "type": "uint256"
        }
      ],
      "name": "ownerOf",
      "outputs": [
        {
          "internalType": "address",
          "name": "",
          "type": "address"
        }
      ],
      "stateMutability": "view",
      "type": "function"
    },
    {
      "inputs": [
        {
          "internalType": "address",
          "name": "from",
          "type": "address"
        },
        {
          "internalType": "address",
          "name": "to",
          "type": "address"
        },
        {
          "internalType": "uint256",
          "name": "tokenId",
          "type": "uint256"
        }
      ],
      "name": "safeTransferFrom",
      "outputs": [],
      "stateMutability": "nonpayable",
      "type": "function"
    },
    {
      "inputs": [
        {
          "internalType": "address",
          "name": "from",
          "type": "address"
        },
        {
          "internalType": "address",
          "name": "to",
          "type": "address"
        },
        {
          "internalType": "uint256",
          "name": "tokenId",
          "type": "uint256"
        },
        {
          "internalType": "bytes",
          "name": "data",
          "type": "bytes"
        }
      ],
      "name": "safeTransferFrom",
      "outputs": [],
      "stateMutability": "nonpayable",
      "type": "function"
    },
    {
      "inputs": [
        {
          "internalType": "address",
          "name": "operator",
          "type": "address"
        },
        {
          "internalType": "bool",
          "name": "approved",
          "type": "bool"
        }
      ],
      "name": "setApprovalForAll",
      "outputs": [],
      "stateMutability": "nonpayable",
      "type": "function"
    },
    {
      "inputs": [
        {
          "internalType": "bytes4",
          "name": "interfaceId",
          "type": "bytes4"
        }
      ],
      "name": "supportsInterface",
      "outputs": [
        {
          "internalType": "bool",
          "name": "",
          "type": "bool"
        }
      ],
      "stateMutability": "view",
      "type": "function"
    },
    {
      "inputs": [],
      "name": "symbol",
      "outputs": [
        {
          "internalType": "string",
          "name": "",
          "type": "string"
        }
      ],
      "stateMutability": "view",
      "type": "function"
    },
    {
      "inputs": [
        {
          "internalType": "uint256",
          "name": "tokenId",
          "type": "uint256"
        }
      ],
      "name": "tokenURI",
      "outputs": [
        {
          "internalType": "string",
          "name": "",
          "type": "string"
        }
      ],
      "stateMutability": "view",
      "type": "function"
    },
    {
      "inputs": [
        {
          "internalType": "address",
          "name": "from",
          "type": "address"
        },
        {
          "internalType": "address",
          "name": "to",
          "type": "address"
        },
        {
          "internalType": "uint256",
          "name": "tokenId",
          "type": "uint256"
        }
      ],
      "name": "transferFrom",
      "outputs": [],
      "stateMutability": "nonpayable",
      "type": "function"
    }
  ],
  "bytecode": "0x60806040523480156200001157600080fd5b506040518060400160405280600581526020017f4d794e46540000000000000000000000000000000000000000000000000000008152506040518060400160405280600481526020017f4d4e46540000000000000000000000000000000000000000000000000000000081525081600090816200008f919062000324565b508060019081620000a1919062000324565b5050506200040b565b600081519050919050565b7f4e487b7100000000000000000000000000000000000000000000000000000000600052604160045260246000fd5b7f4e487b7100000000000000000000000000000000000000000000000000000000600052602260045260246000fd5b600060028204905060018216806200012c57607f821691505b602082108103620001425762000141620000e4565b5b50919050565b60008190508160005260206000209050919050565b60006020601f8301049050919050565b600082821b905092915050565b600060088302620001ac7fffffffffffffffffffffffffffffffffffffffffffffffffffffffffffffffff826200016d565b620001b886836200016d565b95508019841693508086168417925050509392505050565b6000819050919050565b6000819050919050565b600062000205620001ff620001f984620001d0565b620001da565b620001d0565b9050919050565b6000819050919050565b6200022183620001e4565b6200023962000230826200020c565b8484546200017a565b825550505050565b600090565b6200025062000241565b6200025d81848462000216565b505050565b5b8181101562000285576200027960008262000246565b60018101905062000263565b5050565b601f821115620002d4576200029e8162000148565b620002a9846200015d565b81016020851015620002b9578190505b620002d1620002c8856200015d565b83018262000262565b50505b505050565b600082821c905092915050565b6000620002f960001984600802620002d9565b1980831691505092915050565b6000620003148383620002e6565b9150826002028217905092915050565b6200032f82620000aa565b67ffffffffffffffff8111156200034b576200034a620000b5565b5b62000357825462000113565b6200036482828562000289565b600060209050601f8311600181146200039c576000841562000387578287015190505b62000393858262000306565b86555062000403565b601f198416620003ac8662000148565b60005b82811015620003d657848901518255600182019150602085019450602081019050620003af565b86831015620003f65784890151620003f2601f891682620002e6565b8355505b6001600288020188555050505b505050505050565b612110806200041b6000396000f3fe608060405234801561001057600080fd5b50600436106100ea5760003560e01c806370a082311161008c578063b88d4fde11610066578063b88d4fde1461025b578063c87b56dd14610277578063d0def521146102a7578063e985e9c5146102d7576100ea565b806370a08231146101f157806395d89b4114610221578063a22cb4651461023f576100ea565b8063095ea7b3116100c8578063095ea7b31461016d57806323b872dd1461018957806342842e0e146101a55780636352211e146101c1576100ea565b806301ffc9a7146100ef57806306fdde031461011f578063081812fc1461013d575b600080fd5b6101096004803603810190610104919061154a565b610307565b6040516101169190611592565b60405180910390f35b6101276103e9565b604051610134919061163d565b60405180910390f35b61015760048036038101906101529190611695565b61047b565b6040516101649190611703565b60405180910390f35b6101876004803603810190610182919061174a565b610497565b005b6101a3600480360381019061019e919061178a565b6104ad565b005b6101bf60048036038101906101ba919061178a565b6105af565b005b6101db60048036038101906101d69190611695565b6105cf565b6040516101e89190611703565b60405180910390f35b61020b600480360381019061020691906117dd565b6105e1565b6040516102189190611819565b60405180910390f35b61022961069b565b604051610236919061163d565b60405180910390f35b61025960048036038101906102549190611860565b61072d565b005b610275600480360381019061027091906119d5565b610743565b005b610291600480360381019061028c9190611695565b610760565b60405161029e919061163d565b60405180910390f35b6102c160048036038101906102bc9190611af9565b61084d565b6040516102ce9190611819565b60405180910390f35b6102f160048036038101906102ec9190611b55565b610885565b6040516102fe9190611592565b60405180910390f35b60007f80ac58cd000000000000000000000000000000000000000000000000000000007bffffffffffffffffffffffffffffffffffffffffffffffffffffffff1916827bffffffffffffffffffffffffffffffffffffffffffffffffffffffff191614806103d257507f5b5e139f000000000000000000000000000000000000000000000000000000007bffffffffffffffffffffffffffffffffffffffffffffffffffffffff1916827bffffffffffffffffffffffffffffffffffffffffffffffffffffffff1916145b806103e257506103e182610919565b5b9050919050565b6060600080546103f890611bc4565b80601f016020809104026020016040519081016040528092919081815260200182805461042490611bc4565b80156104715780601f1061044657610100808354040283529160200191610471565b820191906000526020600020905b81548152906001019060200180831161045457829003601f168201915b5050505050905090565b600061048682610983565b5061049082610a0b565b9050919050565b6104a982826104a4610a48565b610a50565b5050565b600073ffffffffffffffffffffffffffffffffffffffff168273ffffffffffffffffffffffffffffffffffffffff160361051f5760006040517f64a0ae920000000000000000000000000000000000000000000000000000000081526004016105169190611703565b60405180910390fd5b6000610533838361052e610a48565b610a62565b90508373ffffffffffffffffffffffffffffffffffffffff168173ffffffffffffffffffffffffffffffffffffffff16146105a9578382826040517f64283d7b0000000000000000000000000000000000000000000000000000000081526004016105a093929190611bf5565b60405180910390fd5b50505050565b6105ca83838360405180602001604052806000815250610743565b505050565b60006105da82610983565b9050919050565b60008073ffffffffffffffffffffffffffffffffffffffff168273ffffffffffffffffffffffffffffffffffffffff16036106545760006040517f89c62b6400000000000000000000000000000000000000000000000000000000815260040161064b9190611703565b60405180910390fd5b600360008373ffffffffffffffffffffffffffffffffffffffff1673ffffffffffffffffffffffffffffffffffffffff168152602001908152602001600020549050919050565b6060600180546106aa90611bc4565b80601f01602080910402602001604051908101604052809291908181526020018280546106d690611bc4565b80156107235780601f106106f857610100808354040283529160200191610723565b820191906000526020600020905b81548152906001019060200180831161070657829003601f168201915b5050505050905090565b61073f610738610a48565b8383610c7c565b5050565b61074e8484846104ad565b61075a84848484610deb565b50505050565b606061076b82610fa2565b6107aa576040517f08c379a00000000000000000000000000000000000000000000000000000000081526004016107a190611c9e565b60405180910390fd5b6007600083815260200190815260200160002080546107c890611bc4565b80601f01602080910402602001604051908101604052809291908181526020018280546107f490611bc4565b80156108415780601f1061081657610100808354040283529160200191610841565b820191906000526020600020905b81548152906001019060200180831161082457829003601f168201915b50505050509050919050565b60006108596006610fcd565b60006108656006610fe3565b90506108718482610ff1565b61087b81846110ea565b8091505092915050565b6000600560008473ffffffffffffffffffffffffffffffffffffffff1673ffffffffffffffffffffffffffffffffffffffff16815260200190815260200160002060008373ffffffffffffffffffffffffffffffffffffffff1673ffffffffffffffffffffffffffffffffffffffff16815260200190815260200160002060009054906101000a900460ff16905092915050565b60007f01ffc9a7000000000000000000000000000000000000000000000000000000007bffffffffffffffffffffffffffffffffffffffffffffffffffffffff1916827bffffffffffffffffffffffffffffffffffffffffffffffffffffffff1916149050919050565b60008061098f83611157565b9050600073ffffffffffffffffffffffffffffffffffffffff168173ffffffffffffffffffffffffffffffffffffffff1603610a0257826040517f7e2732890000000000000000000000000000000000000000000000000000000081526004016109f99190611819565b60405180910390fd5b80915050919050565b60006004600083815260200190815260200160002060009054906101000a900473ffffffffffffffffffffffffffffffffffffffff169050919050565b600033905090565b610a5d8383836001611194565b505050565b600080610a6e84611157565b9050600073ffffffffffffffffffffffffffffffffffffffff168373ffffffffffffffffffffffffffffffffffffffff1614610ab057610aaf818486611359565b5b600073ffffffffffffffffffffffffffffffffffffffff168173ffffffffffffffffffffffffffffffffffffffff1614610b4157610af2600085600080611194565b6001600360008373ffffffffffffffffffffffffffffffffffffffff1673ffffffffffffffffffffffffffffffffffffffff168152602001908152602001600020600082825403925050819055505b600073ffffffffffffffffffffffffffffffffffffffff168573ffffffffffffffffffffffffffffffffffffffff1614610bc4576001600360008773ffffffffffffffffffffffffffffffffffffffff1673ffffffffffffffffffffffffffffffffffffffff168152602001908152602001600020600082825401925050819055505b846002600086815260200190815260200160002060006101000a81548173ffffffffffffffffffffffffffffffffffffffff021916908373ffffffffffffffffffffffffffffffffffffffff160217905550838573ffffffffffffffffffffffffffffffffffffffff168273ffffffffffffffffffffffffffffffffffffffff167fddf252ad1be2c89b69c2b068fc378daa952ba7f163c4a11628f55a4df523b3ef60405160405180910390a4809150509392505050565b600073ffffffffffffffffffffffffffffffffffffffff168273ffffffffffffffffffffffffffffffffffffffff1603610ced57816040517f5b08ba18000000000000000000000000000000000000000000000000000000008152600401610ce49190611703565b60405180910390fd5b80600560008573ffffffffffffffffffffffffffffffffffffffff1673ffffffffffffffffffffffffffffffffffffffff16815260200190815260200160002060008473ffffffffffffffffffffffffffffffffffffffff1673ffffffffffffffffffffffffffffffffffffffff16815260200190815260200160002060006101000a81548160ff0219169083151502179055508173ffffffffffffffffffffffffffffffffffffffff168373ffffffffffffffffffffffffffffffffffffffff167f17307eab39ab6107e8899845ad3d59bd9653f200f220920489ca2b5937696c3183604051610dde9190611592565b60405180910390a3505050565b60008373ffffffffffffffffffffffffffffffffffffffff163b1115610f9c578273ffffffffffffffffffffffffffffffffffffffff1663150b7a02610e2f610a48565b8685856040518563ffffffff1660e01b8152600401610e519493929190611d13565b6020604051808303816000875af1925050508015610e8d57506040513d601f19601f82011682018060405250810190610e8a9190611d74565b60015b610f11573d8060008114610ebd576040519150601f19603f3d011682016040523d82523d6000602084013e610ec2565b606091505b506000815103610f0957836040517f64a0ae92000000000000000000000000000000000000000000000000000000008152600401610f009190611703565b60405180910390fd5b805181602001fd5b63150b7a0260e01b7bffffffffffffffffffffffffffffffffffffffffffffffffffffffff1916817bffffffffffffffffffffffffffffffffffffffffffffffffffffffff191614610f9a57836040517f64a0ae92000000000000000000000000000000000000000000000000000000008152600401610f919190611703565b60405180910390fd5b505b50505050565b600080600760008481526020019081526020016000208054610fc390611bc4565b9050119050919050565b6001816000016000828254019250508190555050565b600081600001549050919050565b600073ffffffffffffffffffffffffffffffffffffffff168273ffffffffffffffffffffffffffffffffffffffff16036110635760006040517f64a0ae9200000000000000000000000000000000000000000000000000000000815260040161105a9190611703565b60405180910390fd5b600061107183836000610a62565b9050600073ffffffffffffffffffffffffffffffffffffffff168173ffffffffffffffffffffffffffffffffffffffff16146110e55760006040517f73c6ac6e0000000000000000000000000000000000000000000000000000000081526004016110dc9190611703565b60405180910390fd5b505050565b6110f382610fa2565b611132576040517f08c379a000000000000000000000000000000000000000000000000000000000815260040161112990611e13565b60405180910390fd5b806007600084815260200190815260200160002090816111529190611fdf565b505050565b60006002600083815260200190815260200160002060009054906101000a900473ffffffffffffffffffffffffffffffffffffffff169050919050565b80806111cd5750600073ffffffffffffffffffffffffffffffffffffffff168273ffffffffffffffffffffffffffffffffffffffff1614155b156113015760006111dd84610983565b9050600073ffffffffffffffffffffffffffffffffffffffff168373ffffffffffffffffffffffffffffffffffffffff161415801561124857508273ffffffffffffffffffffffffffffffffffffffff168173ffffffffffffffffffffffffffffffffffffffff1614155b801561125b57506112598184610885565b155b1561129d57826040517fa9fbf51f0000000000000000000000000000000000000000000000000000000081526004016112949190611703565b60405180910390fd5b81156112ff57838573ffffffffffffffffffffffffffffffffffffffff168273ffffffffffffffffffffffffffffffffffffffff167f8c5be1e5ebec7d5bd14f71427d1e84f3dd0314c0f7b2291e5b200ac8c7c3b92560405160405180910390a45b505b836004600085815260200190815260200160002060006101000a81548173ffffffffffffffffffffffffffffffffffffffff021916908373ffffffffffffffffffffffffffffffffffffffff16021790555050505050565b61136483838361141d565b61141857600073ffffffffffffffffffffffffffffffffffffffff168373ffffffffffffffffffffffffffffffffffffffff16036113d957806040517f7e2732890000000000000000000000000000000000000000000000000000000081526004016113d09190611819565b60405180910390fd5b81816040517f177e802f00000000000000000000000000000000000000000000000000000000815260040161140f9291906120b1565b60405180910390fd5b505050565b60008073ffffffffffffffffffffffffffffffffffffffff168373ffffffffffffffffffffffffffffffffffffffff16141580156114d557508273ffffffffffffffffffffffffffffffffffffffff168473ffffffffffffffffffffffffffffffffffffffff16148061149657506114958484610885565b5b806114d457508273ffffffffffffffffffffffffffffffffffffffff166114bc83610a0b565b73ffffffffffffffffffffffffffffffffffffffff16145b5b90509392505050565b6000604051905090565b600080fd5b600080fd5b60007fffffffff0000000000000000000000000000000000000000000000000000000082169050919050565b611527816114f2565b811461153257600080fd5b50565b6000813590506115448161151e565b92915050565b6000602082840312156115605761155f6114e8565b5b600061156e84828501611535565b91505092915050565b60008115159050919050565b61158c81611577565b82525050565b60006020820190506115a76000830184611583565b92915050565b600081519050919050565b600082825260208201905092915050565b60005b838110156115e75780820151818401526020810190506115cc565b60008484015250505050565b6000601f19601f8301169050919050565b600061160f826115ad565b61161981856115b8565b93506116298185602086016115c9565b611632816115f3565b840191505092915050565b600060208201905081810360008301526116578184611604565b905092915050565b6000819050919050565b6116728161165f565b811461167d57600080fd5b50565b60008135905061168f81611669565b92915050565b6000602082840312156116ab576116aa6114e8565b5b60006116b984828501611680565b91505092915050565b600073ffffffffffffffffffffffffffffffffffffffff82169050919050565b60006116ed826116c2565b9050919050565b6116fd816116e2565b82525050565b600060208201905061171860008301846116f4565b92915050565b611727816116e2565b811461173257600080fd5b50565b6000813590506117448161171e565b92915050565b60008060408385031215611761576117606114e8565b5b600061176f85828601611735565b925050602061178085828601611680565b9150509250929050565b6000806000606084860312156117a3576117a26114e8565b5b60006117b186828701611735565b93505060206117c286828701611735565b92505060406117d386828701611680565b9150509250925092565b6000602082840312156117f3576117f26114e8565b5b600061180184828501611735565b91505092915050565b6118138161165f565b82525050565b600060208201905061182e600083018461180a565b92915050565b61183d81611577565b811461184857600080fd5b50565b60008135905061185a81611834565b92915050565b60008060408385031215611877576118766114e8565b5b600061188585828601611735565b92505060206118968582860161184b565b9150509250929050565b600080fd5b600080fd5b7f4e487b7100000000000000000000000000000000000000000000000000000000600052604160045260246000fd5b6118e2826115f3565b810181811067ffffffffffffffff82111715611901576119006118aa565b5b80604052505050565b60006119146114de565b905061192082826118d9565b919050565b600067ffffffffffffffff8211156119405761193f6118aa565b5b611949826115f3565b9050602081019050919050565b82818337600083830152505050565b600061197861197384611925565b61190a565b905082815260208101848484011115611994576119936118a5565b5b61199f848285611956565b509392505050565b600082601f8301126119bc576119bb6118a0565b5b81356119cc848260208601611965565b91505092915050565b600080600080608085870312156119ef576119ee6114e8565b5b60006119fd87828801611735565b9450506020611a0e87828801611735565b9350506040611a1f87828801611680565b925050606085013567ffffffffffffffff811115611a4057611a3f6114ed565b5b611a4c878288016119a7565b91505092959194509250565b600067ffffffffffffffff821115611a7357611a726118aa565b5b611a7c826115f3565b9050602081019050919050565b6000611a9c611a9784611a58565b61190a565b905082815260208101848484011115611ab857611ab76118a5565b5b611ac3848285611956565b509392505050565b600082601f830112611ae057611adf6118a0565b5b8135611af0848260208601611a89565b91505092915050565b60008060408385031215611b1057611b0f6114e8565b5b6000611b1e85828601611735565b925050602083013567ffffffffffffffff811115611b3f57611b3e6114ed565b5b611b4b85828601611acb565b9150509250929050565b60008060408385031215611b6c57611b6b6114e8565b5b6000611b7a85828601611735565b9250506020611b8b85828601611735565b9150509250929050565b7f4e487b7100000000000000000000000000000000000000000000000000000000600052602260045260246000fd5b60006002820490506001821680611bdc57607f821691505b602082108103611bef57611bee611b95565b5b50919050565b6000606082019050611c0a60008301866116f4565b611c17602083018561180a565b611c2460408301846116f4565b949350505050565b7f4552433732314d657461646174613a2055524920717565727920666f72206e6f60008201527f6e6578697374656e7420746f6b656e0000000000000000000000000000000000602082015250565b6000611c88602f836115b8565b9150611c9382611c2c565b604082019050919050565b60006020820190508181036000830152611cb781611c7b565b9050919050565b600081519050919050565b600082825260208201905092915050565b6000611ce582611cbe565b611cef8185611cc9565b9350611cff8185602086016115c9565b611d08816115f3565b840191505092915050565b6000608082019050611d2860008301876116f4565b611d3560208301866116f4565b611d42604083018561180a565b8181036060830152611d548184611cda565b905095945050505050565b600081519050611d6e8161151e565b92915050565b600060208284031215611d8a57611d896114e8565b5b6000611d9884828501611d5f565b91505092915050565b7f4552433732314d657461646174613a2055524920736574206f66206e6f6e657860008201527f697374656e7420746f6b656e0000000000000000000000000000000000000000602082015250565b6000611dfd602c836115b8565b9150611e0882611da1565b604082019050919050565b60006020820190508181036000830152611e2c81611df0565b9050919050565b60008190508160005260206000209050919050565b60006020601f8301049050919050565b600082821b905092915050565b600060088302611e957fffffffffffffffffffffffffffffffffffffffffffffffffffffffffffffffff82611e58565b611e9f8683611e58565b95508019841693508086168417925050509392505050565b6000819050919050565b6000611edc611ed7611ed28461165f565b611eb7565b61165f565b9050919050565b6000819050919050565b611ef683611ec1565b611f0a611f0282611ee3565b848454611e65565b825550505050565b600090565b611f1f611f12565b611f2a818484611eed565b505050565b5b81811015611f4e57611f43600082611f17565b600181019050611f30565b5050565b601f821115611f9357611f6481611e33565b611f6d84611e48565b81016020851015611f7c578190505b611f90611f8885611e48565b830182611f2f565b50505b505050565b600082821c905092915050565b6000611fb660001984600802611f98565b1980831691505092915050565b6000611fcf8383611fa5565b9150826002028217905092915050565b611fe8826115ad565b67ffffffffffffffff811115612001576120006118aa565b5b61200b8254611bc4565b612016828285611f52565b600060209050601f8311600181146120495760008415612037578287015190505b6120418582611fc3565b8655506120a9565b601f19841661205786611e33565b60005b8281101561207f5784890151825560018201915060208501945060208101905061205a565b8683101561209c5784890151612098601f891682611fa5565b8355505b6001600288020188555050505b505050505050565b60006040820190506120c660008301856116f4565b6120d3602083018461180a565b939250505056fea264697066735822122067ecfeec26998bce15a23c350fa8b74e5399421a06fdeb1295bd21f81efdb1a864736f6c63430008140033",
  "linkReferences": {},
  "deployedLinkReferences": {}
}